:020000040000FA
:060000007FEF02F0120088
:020006001200E6
:06000800C9EF00F0120038
:02000E000100EF
:0C0010001A050000600000002F00000036
:04001C00D9CFE6FF53
:10002000E1CFD9FFFD0EDBCFE6FFE66AFE0EDBCFA8
:10003000E6FFE4EC01F0E552E552E552E552E7CF88
:10004000D9FF1200D9CFE6FFE1CFD9FFFE0EDBCFFB
:10005000E6FF48EC02F0E552ACA2FED7E552E7CF4E
:10006000D9FF1200D9CFE6FFE1CFD9FF0D0EE66E22
:10007000E9DFE552FD0EDBCFE9FFFE0EDBCFEAFF45
:10008000EF5013E0FD0EDBCFE9FFFE0EDBCFEAFF02
:10009000EF50E66E48EC02F0E552ACA2FED7FD0E42
:1000A000DB2AFE0E01E3DB2AE5D7E552E7CFD9FFD5
:1000B0001200D9CFE6FFE1CFD9FFE6529EAAFED7C4
:1000C00029EC02F0DF6E0A0EE66EBCDFE5520D0E83
:1000D000E66EB8DFE552DFCFE6FFB4DFE552DF5072
:1000E00000D0E552E552E7CFD9FF12009EAAFED715
:1000F00029EC02F000D01200D9CFE6FFE1CFD9FF02
:10010000020EE1260D0EE66E9DDFE5520A0EE66E4A
:1001100099DFE552DF6AFC0EDB50DF5C1FE29EAA2E
:10012000FED729EC02F0E76E010EE7CFDBFFFD0EF4
:10013000DBCFE9FFFE0EDBCFEAFF010EDBCFEFFFE7
:10014000DBCFE6FF48EC02F0E552ACA2FED7FD0E95
:10015000DB2AFE0E01E3DB2ADF2ADDD7020EE15C9B
:1001600002E2E16AE552E16EE552E7CFD9FF120003
:0A0170009E9A9F9A9D8AF28C12005D
:06017A0076EC00F000012C
:10018000606F6051310A02E0829002D0828000D01C
:100190001200D8CFE4FFE0CFE4FFE46EDACFE4FF53
:1001A000E2CFDAFFE9CFE4FFEACFE4FFF6CFE4FFE6
:1001B000F7CFE4FFF5CFE4FFF3CFE4FFF4CFE4FFA4
:1001C000FACFE4FF00EE00F0020EE80403E3EECF06
:1001D000E4FFFBD700EE02F0020EE80403E3EECFEB
:1001E000E4FFFBD7E6529EBAC8DF9E9AE55200EEC6
:1001F00003F0020EE80403E3E5CFEDFFFBD700EECA
:1002000001F0020EE80403E3E5CFEDFFFBD7E5CFF5
:10021000FAFFE5CFF4FFE5CFF3FFE5CFF5FFE5CF3C
:10022000F7FFE5CFF6FFE5CFEAFFE5CFE9FFE5CF42
:10023000DAFFE550E5CFE0FFE5CFD8FF1000F28E02
:10024000120000016C0E8E6F9490829095908C90AD
:10025000B8EC00F01F0EE66E8EC0E6FF0EEC00F06C
:10026000E552E552610EE66E000EE66E32EC00F0ED
:0A027000E552E552E4DFFFD712006B
:06027A00D9CFE6FFE1CF41
:10028000D9FFE652DF6AFE0EDB50D880DF5407E369
:10029000050EE66E5FEC02F0E552DF2AF4D700D0DF
:1002A000E552E552E7CFD9FF1200D9CFE6FFE1CF03
:1002B000D9FFE652DF6AFE0EDB50D880DF5407E339
:1002C000010EE66E5FEC02F0E552DF2AF4D700D0B3
:1002D000E552E552E7CFD9FF1200D9CFE6FFE1CFD3
:1002E000D9FF020EE126DF6AFE0EDB50DF5C13E26F
:1002F000010EDB6A0A0EF36E010EDBCFF4FFF35042
:10030000F45C07E2640EE66EB8DFE552010EDB2A0C
:10031000F1D7DF2AE9D7020EE15C02E2E16AE55299
:0A032000E16EE552E7CFD9FF1200AD
:06032A000E0EF66E000E3F
:10033000F76E000EF86E00010900F550946F090089
:10034000F550956F03E1946701D03DD00900F55059
:100350008F6F0900F550906F0900F550916F0900FB
:100360000900F550E96E0900F550EA6E0900090030
:100370000900F550926F0900F550936F09000900CC
:10038000F6CF96F0F7CF97F0F8CF98F08FC0F6FF42
:1003900090C0F7FF91C0F8FF0001925302E1935320
:1003A00007E00900F550EE6E9207F8E29307F9D7DF
:1003B00096C0F6FF97C0F7FF98C0F8FF00019407BA
:0803C000000E955BBFD712008F
:0803C800D9CFE6FFDACFE6FF12
:1003D000E1CFD9FFE2CFDAFFAC6AAB6AFD0EDBB04A
:1003E000AC88DBA202D0AC8CAB8CDBB4AC8EDBA6D1
:1003F00002D0AB8801D0AB8ADBB8AC849E98DBBA64
:10040000AB86DBAC02D09D8A01D09D9A9E9ADBAE72
:1004100002D09D8801D09D98FB0EDB50AF6EFB0E85
:10042000FC0EDBCF03F003C002F0036A0250B06E93
:10043000AC8AAB8E949C948EAC50100B04E0AC5004
:10044000800B01E1948CE552E5CFDAFFE7CFD9FFCD
:02045000120098
:0E045200D9CFE6FFDACFE6FFE1CFD9FFE2CF48
:10046000DAFFE652F20E00019917ABAC03D0999176
:10047000ABB09981ABB49985ABB29987AE50DF6EC2
:10048000DF50E552E552E5CFDAFFE7CFD9FF1200A2
:10049000D9CFE6FFDACFE6FFE1CFD9FFE2CFDAFF2F
:1004A000ACAC04D0AC90000199B3AC80FD0EDB5035
:0E04B000AD6EE552E5CFDAFFE7CFD9FF1200BF
:0204BE00FF0E2F
:1004C000E350046E480E01D04C0EE76EE72EFED7C7
:0E04D000E76AE72EFED7042EF7D700001200D1
:0204DE00000E0E
:1004E000F36E00EE00F0080E01D81200EA6002D0B0
:0E04F000EE6AFCD7F350E9601200EE6AFCD70A
:0204FE0013EEFB
:1005000000F023EE00F0F86A019C95EC01F003EC9A
:0A05100000F021EC01F0FBD712000F
:06051A00005072657373CE
:10052000203120746F20737769746368204F4E0AFE
:100530000D5072657373203020746F207377697467
:090540006368204F46460A0D00D5
:020000040030CA
:010001000CF2
:0100020019E4
:010003001EDE
:010005008179
:010006008079
:010008000FE8
:00000001FF
