:040000000CEF00F011
:10000800FACF32F0FBCF33F0E9CF34F005ED04F04E
:04001800DCEF04F025
:10080000004F4E20004F464600000600EACF35F06C
:10081000E1CF36F0E2CF37F0D9CF38F0DACF39F088
:10082000F3CF3AF0F4CF3BF0F6CF3CF0F7CF3DF00A
:10083000F8CF3EF0F5CF3FF09EBA2FEC05F082A046
:1008400007D0080E316E010E306EAEEC04F006D00B
:10085000080E316E050E306EAEEC04F09E9A3FC06D
:10086000F5FF3EC0F8FF3DC0F7FF3CC0F6FF3BC0C0
:10087000F4FF3AC0F3FF39C0DAFF38C0D9FF37C000
:10088000E2FF36C0E1FF35C0EAFF34C0E9FF33C004
:10089000FBFF32C0FAFF1100456E000EAC6E000E79
:1008A000AB6E45B0AC8845A202D0AC8CAB8C45B4E5
:1008B000AC8E45A602D0AB8801D0AB8A45B8AC84DB
:1008C0009E9845BAAB8645AC02D09D8A01D09D9AD0
:1008D0009E9A45AE02D09D8801D09D9840C0AFFF42
:1008E00041C042F042C043F0446A4350B06EAC8A0B
:1008F000AB8E949C948EACB8ACBE01D0948C12009C
:100900000D0E57EC05F016D042C0F6FF43C0F7FFBE
:10091000F86A070EF76403D00800F55005D0F6CF4B
:10092000E9FFF7CFEAFFEF503DEC05F0ACA2FED7B0
:10093000424A432A42C0F6FF43C0F7FFF86A070E57
:10094000F76403D00800F55005D0F6CFE9FFF7CFE4
:10095000EAFFEF500009D8B41200D6D70D0E5EECB6
:1009600005F016D030C0F6FF31C0F7FFF86A070E69
:10097000F76403D00800F55005D0F6CFE9FFF7CFB4
:10098000EAFFEF5046EC05F0ACA2FED7304A312A20
:1009900030C0F6FF31C0F7FFF86A070EF76403D0E6
:1009A0000800F55005D0F6CFE9FFF7CFEAFFEF508A
:1009B0000009D8B41200D6D74A6A496A486AE80ED4
:1009C000F66E090EF76E000EF86E00EE01F010EEF6
:1009D0002DF00900F5CFEEFFE550E150FAE1000EF1
:1009E000F86E00010BEF05F0507265737320312033
:1009F000746F20737769746368204F4E0A0D5072CC
:100A0000657373203020746F207377697463682076
:100A10004F46460A0D006C0E4B6E94908290959056
:100A20008C9065EC05F01F0E466E4B504FEC05F0B8
:100A3000000E436E010E426E80EC04F0F28EFFD782
:100A4000F20E4816ABAC03D04890ABB04880ABB4C4
:100A50004884ABB24886AECF2EF02E5012006AEC1E
:100A600005F04A6E04D0828007D0829005D04A50AB
:100A7000310AD8B4F8D7F9D71200406EACAC03D025
:100A8000AC9048B2AC8040C0ADFF12002E6EACAC52
:100A900003D0AC9048B2AC802EC0ADFF1200476EC0
:100AA00046C040F0416A47504CEC04F01200416EE1
:100AB00041503DEC05F0ACB21200FDD72F6E2F5027
:100AC00046EC05F0ACB21200FDD79E9A9F9A9D8A23
:0E0AD000F28C12009EAAFED720EC05F0120058
:020000040020DA
:08000000FFFFFFFFFFFFFFFF00
:020000040030CA
:0E000000040C1F1EFF8081FF0FC00FE00F4099
:00000001FF
